{
  "_format": "hh-sol-artifact-1",
  "contractName": "BFCMEMECow",
  "sourceName": "contracts/BFCMEMECow.sol",
  "abi": [
    {
      "inputs": [],
      "stateMutability": "nonpayable",
      "type": "constructor"
    },
    {
      "anonymous": false,
      "inputs": [
        {
          "indexed": true,
          "internalType": "address",
          "name": "owner",
          "type": "address"
        },
        {
          "indexed": true,
          "internalType": "address",
          "name": "approved",
          "type": "address"
        },
        {
          "indexed": true,
          "internalType": "uint256",
          "name": "tokenId",
          "type": "uint256"
        }
      ],
      "name": "Approval",
      "type": "event"
    },
    {
      "anonymous": false,
      "inputs": [
        {
          "indexed": true,
          "internalType": "address",
          "name": "owner",
          "type": "address"
        },
        {
          "indexed": true,
          "internalType": "address",
          "name": "operator",
          "type": "address"
        },
        {
          "indexed": false,
          "internalType": "bool",
          "name": "approved",
          "type": "bool"
        }
      ],
      "name": "ApprovalForAll",
      "type": "event"
    },
    {
      "anonymous": false,
      "inputs": [
        {
          "indexed": false,
          "internalType": "uint256",
          "name": "_fromTokenId",
          "type": "uint256"
        },
        {
          "indexed": false,
          "internalType": "uint256",
          "name": "_toTokenId",
          "type": "uint256"
        }
      ],
      "name": "BatchMetadataUpdate",
      "type": "event"
    },
    {
      "anonymous": false,
      "inputs": [
        {
          "indexed": true,
          "internalType": "address",
          "name": "buyer",
          "type": "address"
        },
        {
          "indexed": false,
          "internalType": "uint256",
          "name": "cowId",
          "type": "uint256"
        }
      ],
      "name": "CowBoughtAndMinted",
      "type": "event"
    },
    {
      "anonymous": false,
      "inputs": [
        {
          "indexed": true,
          "internalType": "address",
          "name": "owner",
          "type": "address"
        },
        {
          "indexed": false,
          "internalType": "uint256",
          "name": "cowId",
          "type": "uint256"
        }
      ],
      "name": "CowMinted",
      "type": "event"
    },
    {
      "anonymous": false,
      "inputs": [
        {
          "indexed": false,
          "internalType": "uint256",
          "name": "_tokenId",
          "type": "uint256"
        }
      ],
      "name": "MetadataUpdate",
      "type": "event"
    },
    {
      "anonymous": false,
      "inputs": [
        {
          "indexed": false,
          "internalType": "uint256",
          "name": "amount",
          "type": "uint256"
        },
        {
          "indexed": true,
          "internalType": "address",
          "name": "owner",
          "type": "address"
        }
      ],
      "name": "MethaneProduced",
      "type": "event"
    },
    {
      "anonymous": false,
      "inputs": [
        {
          "indexed": true,
          "internalType": "address",
          "name": "previousOwner",
          "type": "address"
        },
        {
          "indexed": true,
          "internalType": "address",
          "name": "newOwner",
          "type": "address"
        }
      ],
      "name": "OwnershipTransferred",
      "type": "event"
    },
    {
      "anonymous": false,
      "inputs": [
        {
          "indexed": true,
          "internalType": "address",
          "name": "from",
          "type": "address"
        },
        {
          "indexed": true,
          "internalType": "address",
          "name": "to",
          "type": "address"
        },
        {
          "indexed": true,
          "internalType": "uint256",
          "name": "tokenId",
          "type": "uint256"
        }
      ],
      "name": "Transfer",
      "type": "event"
    },
    {
      "inputs": [],
      "name": "FREE_COWS",
      "outputs": [
        {
          "internalType": "uint256",
          "name": "",
          "type": "uint256"
        }
      ],
      "stateMutability": "view",
      "type": "function"
    },
    {
      "inputs": [],
      "name": "MAX_COW_SUPPLY",
      "outputs": [
        {
          "internalType": "uint256",
          "name": "",
          "type": "uint256"
        }
      ],
      "stateMutability": "view",
      "type": "function"
    },
    {
      "inputs": [],
      "name": "MINING_CAP_PER_COW",
      "outputs": [
        {
          "internalType": "uint256",
          "name": "",
          "type": "uint256"
        }
      ],
      "stateMutability": "view",
      "type": "function"
    },
    {
      "inputs": [
        {
          "internalType": "address",
          "name": "_address",
          "type": "address"
        }
      ],
      "name": "addToWhitelist",
      "outputs": [],
      "stateMutability": "nonpayable",
      "type": "function"
    },
    {
      "inputs": [
        {
          "internalType": "address",
          "name": "to",
          "type": "address"
        },
        {
          "internalType": "uint256",
          "name": "tokenId",
          "type": "uint256"
        }
      ],
      "name": "approve",
      "outputs": [],
      "stateMutability": "nonpayable",
      "type": "function"
    },
    {
      "inputs": [
        {
          "internalType": "address",
          "name": "owner",
          "type": "address"
        }
      ],
      "name": "balanceOf",
      "outputs": [
        {
          "internalType": "uint256",
          "name": "",
          "type": "uint256"
        }
      ],
      "stateMutability": "view",
      "type": "function"
    },
    {
      "inputs": [
        {
          "internalType": "string",
          "name": "tokenURI",
          "type": "string"
        }
      ],
      "name": "buyAndMintCow",
      "outputs": [],
      "stateMutability": "payable",
      "type": "function"
    },
    {
      "inputs": [],
      "name": "claimFreeCow",
      "outputs": [],
      "stateMutability": "nonpayable",
      "type": "function"
    },
    {
      "inputs": [
        {
          "internalType": "uint256",
          "name": "",
          "type": "uint256"
        }
      ],
      "name": "cowMiningCap",
      "outputs": [
        {
          "internalType": "uint256",
          "name": "",
          "type": "uint256"
        }
      ],
      "stateMutability": "view",
      "type": "function"
    },
    {
      "inputs": [
        {
          "internalType": "uint256",
          "name": "",
          "type": "uint256"
        }
      ],
      "name": "cowRegions",
      "outputs": [
        {
          "internalType": "string",
          "name": "",
          "type": "string"
        }
      ],
      "stateMutability": "view",
      "type": "function"
    },
    {
      "inputs": [
        {
          "internalType": "uint256",
          "name": "tokenId",
          "type": "uint256"
        }
      ],
      "name": "getApproved",
      "outputs": [
        {
          "internalType": "address",
          "name": "",
          "type": "address"
        }
      ],
      "stateMutability": "view",
      "type": "function"
    },
    {
      "inputs": [
        {
          "internalType": "string",
          "name": "region",
          "type": "string"
        }
      ],
      "name": "getRegionMethane",
      "outputs": [
        {
          "internalType": "uint256",
          "name": "",
          "type": "uint256"
        }
      ],
      "stateMutability": "view",
      "type": "function"
    },
    {
      "inputs": [],
      "name": "getRemainingFreeCows",
      "outputs": [
        {
          "internalType": "uint256",
          "name": "",
          "type": "uint256"
        }
      ],
      "stateMutability": "view",
      "type": "function"
    },
    {
      "inputs": [],
      "name": "getTotalMethaneProduced",
      "outputs": [
        {
          "internalType": "uint256",
          "name": "",
          "type": "uint256"
        }
      ],
      "stateMutability": "view",
      "type": "function"
    },
    {
      "inputs": [
        {
          "internalType": "address",
          "name": "",
          "type": "address"
        }
      ],
      "name": "hasClaimedFreeCow",
      "outputs": [
        {
          "internalType": "bool",
          "name": "",
          "type": "bool"
        }
      ],
      "stateMutability": "view",
      "type": "function"
    },
    {
      "inputs": [
        {
          "internalType": "address",
          "name": "owner",
          "type": "address"
        },
        {
          "internalType": "address",
          "name": "operator",
          "type": "address"
        }
      ],
      "name": "isApprovedForAll",
      "outputs": [
        {
          "internalType": "bool",
          "name": "",
          "type": "bool"
        }
      ],
      "stateMutability": "view",
      "type": "function"
    },
    {
      "inputs": [
        {
          "internalType": "address",
          "name": "to",
          "type": "address"
        }
      ],
      "name": "mintCowFor",
      "outputs": [],
      "stateMutability": "nonpayable",
      "type": "function"
    },
    {
      "inputs": [],
      "name": "name",
      "outputs": [
        {
          "internalType": "string",
          "name": "",
          "type": "string"
        }
      ],
      "stateMutability": "view",
      "type": "function"
    },
    {
      "inputs": [],
      "name": "owner",
      "outputs": [
        {
          "internalType": "address",
          "name": "",
          "type": "address"
        }
      ],
      "stateMutability": "view",
      "type": "function"
    },
    {
      "inputs": [
        {
          "internalType": "uint256",
          "name": "tokenId",
          "type": "uint256"
        }
      ],
      "name": "ownerOf",
      "outputs": [
        {
          "internalType": "address",
          "name": "",
          "type": "address"
        }
      ],
      "stateMutability": "view",
      "type": "function"
    },
    {
      "inputs": [],
      "name": "price",
      "outputs": [
        {
          "internalType": "uint256",
          "name": "",
          "type": "uint256"
        }
      ],
      "stateMutability": "view",
      "type": "function"
    },
    {
      "inputs": [
        {
          "internalType": "uint256",
          "name": "cowId",
          "type": "uint256"
        }
      ],
      "name": "produceMethane",
      "outputs": [],
      "stateMutability": "nonpayable",
      "type": "function"
    },
    {
      "inputs": [
        {
          "internalType": "string",
          "name": "",
          "type": "string"
        }
      ],
      "name": "regionMethane",
      "outputs": [
        {
          "internalType": "uint256",
          "name": "",
          "type": "uint256"
        }
      ],
      "stateMutability": "view",
      "type": "function"
    },
    {
      "inputs": [
        {
          "internalType": "address",
          "name": "_address",
          "type": "address"
        }
      ],
      "name": "removeFromWhitelist",
      "outputs": [],
      "stateMutability": "nonpayable",
      "type": "function"
    },
    {
      "inputs": [],
      "name": "renounceOwnership",
      "outputs": [],
      "stateMutability": "nonpayable",
      "type": "function"
    },
    {
      "inputs": [
        {
          "internalType": "address",
          "name": "from",
          "type": "address"
        },
        {
          "internalType": "address",
          "name": "to",
          "type": "address"
        },
        {
          "internalType": "uint256",
          "name": "tokenId",
          "type": "uint256"
        }
      ],
      "name": "safeTransferFrom",
      "outputs": [],
      "stateMutability": "nonpayable",
      "type": "function"
    },
    {
      "inputs": [
        {
          "internalType": "address",
          "name": "from",
          "type": "address"
        },
        {
          "internalType": "address",
          "name": "to",
          "type": "address"
        },
        {
          "internalType": "uint256",
          "name": "tokenId",
          "type": "uint256"
        },
        {
          "internalType": "bytes",
          "name": "data",
          "type": "bytes"
        }
      ],
      "name": "safeTransferFrom",
      "outputs": [],
      "stateMutability": "nonpayable",
      "type": "function"
    },
    {
      "inputs": [
        {
          "internalType": "address",
          "name": "operator",
          "type": "address"
        },
        {
          "internalType": "bool",
          "name": "approved",
          "type": "bool"
        }
      ],
      "name": "setApprovalForAll",
      "outputs": [],
      "stateMutability": "nonpayable",
      "type": "function"
    },
    {
      "inputs": [
        {
          "internalType": "bytes4",
          "name": "interfaceId",
          "type": "bytes4"
        }
      ],
      "name": "supportsInterface",
      "outputs": [
        {
          "internalType": "bool",
          "name": "",
          "type": "bool"
        }
      ],
      "stateMutability": "view",
      "type": "function"
    },
    {
      "inputs": [],
      "name": "symbol",
      "outputs": [
        {
          "internalType": "string",
          "name": "",
          "type": "string"
        }
      ],
      "stateMutability": "view",
      "type": "function"
    },
    {
      "inputs": [
        {
          "internalType": "uint256",
          "name": "tokenId",
          "type": "uint256"
        }
      ],
      "name": "tokenURI",
      "outputs": [
        {
          "internalType": "string",
          "name": "",
          "type": "string"
        }
      ],
      "stateMutability": "view",
      "type": "function"
    },
    {
      "inputs": [],
      "name": "totalMethaneProduced",
      "outputs": [
        {
          "internalType": "uint256",
          "name": "",
          "type": "uint256"
        }
      ],
      "stateMutability": "view",
      "type": "function"
    },
    {
      "inputs": [
        {
          "internalType": "address",
          "name": "from",
          "type": "address"
        },
        {
          "internalType": "address",
          "name": "to",
          "type": "address"
        },
        {
          "internalType": "uint256",
          "name": "tokenId",
          "type": "uint256"
        }
      ],
      "name": "transferFrom",
      "outputs": [],
      "stateMutability": "nonpayable",
      "type": "function"
    },
    {
      "inputs": [
        {
          "internalType": "address",
          "name": "newOwner",
          "type": "address"
        }
      ],
      "name": "transferOwnership",
      "outputs": [],
      "stateMutability": "nonpayable",
      "type": "function"
    },
    {
      "inputs": [
        {
          "internalType": "address",
          "name": "",
          "type": "address"
        }
      ],
      "name": "whitelist",
      "outputs": [
        {
          "internalType": "bool",
          "name": "",
          "type": "bool"
        }
      ],
      "stateMutability": "view",
      "type": "function"
    },
    {
      "inputs": [],
      "name": "withdraw",
      "outputs": [],
      "stateMutability": "nonpayable",
      "type": "function"
    }
  ],
  "bytecode": "0x6080604052666a94d74f4300006008556040518060c001604052806040518060400160405280600d81526020017f4e6f72746820416d65726963610000000000000000000000000000000000000081525081526020016040518060400160405280600681526020017f4575726f7065000000000000000000000000000000000000000000000000000081525081526020016040518060400160405280600481526020017f417369610000000000000000000000000000000000000000000000000000000081525081526020016040518060400160405280600d81526020017f536f75746820416d65726963610000000000000000000000000000000000000081525081526020016040518060400160405280600681526020017f416672696361000000000000000000000000000000000000000000000000000081525081526020016040518060400160405280600981526020017f4175737472616c69610000000000000000000000000000000000000000000000815250815250600f9060066200018c92919062000321565b503480156200019a57600080fd5b506040518060400160405280601581526020017f42757270696e6746617274696e67436f77204e465400000000000000000000008152506040518060400160405280600681526020017f4246434e4654000000000000000000000000000000000000000000000000000081525081600090816200021891906200067b565b5080600190816200022a91906200067b565b5050506200024d620002416200025360201b60201c565b6200025b60201b60201c565b62000762565b600033905090565b6000600760009054906101000a900473ffffffffffffffffffffffffffffffffffffffff16905081600760006101000a81548173ffffffffffffffffffffffffffffffffffffffff021916908373ffffffffffffffffffffffffffffffffffffffff1602179055508173ffffffffffffffffffffffffffffffffffffffff168173ffffffffffffffffffffffffffffffffffffffff167f8be0079c531659141344cd1fd0a4f28419497f9722a3daafe3b4186f6b6457e060405160405180910390a35050565b826006810192821562000361579160200282015b82811115620003605782518290816200034f91906200067b565b509160200191906001019062000335565b5b50905062000370919062000374565b5090565b5b808211156200039857600081816200038e91906200039c565b5060010162000375565b5090565b508054620003aa906200046a565b6000825580601f10620003be5750620003df565b601f016020900490600052602060002090810190620003de9190620003e2565b5b50565b5b80821115620003fd576000816000905550600101620003e3565b5090565b600081519050919050565b7f4e487b7100000000000000000000000000000000000000000000000000000000600052604160045260246000fd5b7f4e487b7100000000000000000000000000000000000000000000000000000000600052602260045260246000fd5b600060028204905060018216806200048357607f821691505b6020821081036200049957620004986200043b565b5b50919050565b60008190508160005260206000209050919050565b60006020601f8301049050919050565b600082821b905092915050565b600060088302620005037fffffffffffffffffffffffffffffffffffffffffffffffffffffffffffffffff82620004c4565b6200050f8683620004c4565b95508019841693508086168417925050509392505050565b6000819050919050565b6000819050919050565b60006200055c62000556620005508462000527565b62000531565b62000527565b9050919050565b6000819050919050565b62000578836200053b565b62000590620005878262000563565b848454620004d1565b825550505050565b600090565b620005a762000598565b620005b48184846200056d565b505050565b5b81811015620005dc57620005d06000826200059d565b600181019050620005ba565b5050565b601f8211156200062b57620005f5816200049f565b6200060084620004b4565b8101602085101562000610578190505b620006286200061f85620004b4565b830182620005b9565b50505b505050565b600082821c905092915050565b6000620006506000198460080262000630565b1980831691505092915050565b60006200066b83836200063d565b9150826002028217905092915050565b620006868262000401565b67ffffffffffffffff811115620006a257620006a16200040c565b5b620006ae82546200046a565b620006bb828285620005e0565b600060209050601f831160018114620006f35760008415620006de578287015190505b620006ea85826200065d565b8655506200075a565b601f19841662000703866200049f565b60005b828110156200072d5784890151825560018201915060208501945060208101905062000706565b868310156200074d578489015162000749601f8916826200063d565b8355505b6001600288020188555050505b505050505050565b61439980620007726000396000f3fe60806040526004361061020f5760003560e01c80638bdefe4b11610118578063bca19647116100a0578063e43252d71161006f578063e43252d7146107b1578063e7c3f15e146107da578063e985e9c514610817578063eb8488e814610854578063f2fde38b146108705761020f565b8063bca19647146106f5578063c81bf71314610720578063c87b56dd1461074b578063d656ba82146107885761020f565b80639b19251a116100e75780639b19251a146106105780639eb6c1f71461064d578063a035b1fe14610678578063a22cb465146106a3578063b88d4fde146106cc5761020f565b80638bdefe4b146105525780638da5cb5b1461057d57806395d89b41146105a857806396c8796f146105d35761020f565b80633ccfd60b1161019b5780636352211e1161016a5780636352211e1461046d57806370a08231146104aa578063715018a6146104e757806378b21a1b146104fe5780638ab1d681146105295761020f565b80633ccfd60b146103c757806342842e0e146103de5780634fb355ec1461040757806355f7503f146104445761020f565b8063081812fc116101e2578063081812fc146102d0578063095ea7b31461030d5780630aae7df7146103365780630f01b6ef1461036157806323b872dd1461039e5761020f565b806301ffc9a714610214578063061cfd871461025157806306e55f1f1461026857806306fdde03146102a5575b600080fd5b34801561022057600080fd5b5061023b60048036038101906102369190612c1b565b610899565b6040516102489190612c63565b60405180910390f35b34801561025d57600080fd5b506102666108fa565b005b34801561027457600080fd5b5061028f600480360381019061028a9190612cb4565b610b9a565b60405161029c9190612d71565b60405180910390f35b3480156102b157600080fd5b506102ba610c3a565b6040516102c79190612d71565b60405180910390f35b3480156102dc57600080fd5b506102f760048036038101906102f29190612cb4565b610ccc565b6040516103049190612dd4565b60405180910390f35b34801561031957600080fd5b50610334600480360381019061032f9190612e1b565b610d12565b005b34801561034257600080fd5b5061034b610e29565b6040516103589190612e6a565b60405180910390f35b34801561036d57600080fd5b5061038860048036038101906103839190612fba565b610e2f565b6040516103959190612e6a565b60405180910390f35b3480156103aa57600080fd5b506103c560048036038101906103c09190613003565b610e57565b005b3480156103d357600080fd5b506103dc610eb7565b005b3480156103ea57600080fd5b5061040560048036038101906104009190613003565b610f0f565b005b34801561041357600080fd5b5061042e60048036038101906104299190612fba565b610f2f565b60405161043b9190612e6a565b60405180910390f35b34801561045057600080fd5b5061046b60048036038101906104669190613056565b610f5d565b005b34801561047957600080fd5b50610494600480360381019061048f9190612cb4565b611048565b6040516104a19190612dd4565b60405180910390f35b3480156104b657600080fd5b506104d160048036038101906104cc9190613056565b6110ce565b6040516104de9190612e6a565b60405180910390f35b3480156104f357600080fd5b506104fc611185565b005b34801561050a57600080fd5b50610513611199565b6040516105209190612e6a565b60405180910390f35b34801561053557600080fd5b50610550600480360381019061054b9190613056565b6111a3565b005b34801561055e57600080fd5b50610567611206565b6040516105749190612e6a565b60405180910390f35b34801561058957600080fd5b5061059261120c565b60405161059f9190612dd4565b60405180910390f35b3480156105b457600080fd5b506105bd611236565b6040516105ca9190612d71565b60405180910390f35b3480156105df57600080fd5b506105fa60048036038101906105f59190612cb4565b6112c8565b6040516106079190612e6a565b60405180910390f35b34801561061c57600080fd5b5061063760048036038101906106329190613056565b6112e0565b6040516106449190612c63565b60405180910390f35b34801561065957600080fd5b50610662611300565b60405161066f9190612e6a565b60405180910390f35b34801561068457600080fd5b5061068d61131e565b60405161069a9190612e6a565b60405180910390f35b3480156106af57600080fd5b506106ca60048036038101906106c591906130af565b611324565b005b3480156106d857600080fd5b506106f360048036038101906106ee9190613190565b61133a565b005b34801561070157600080fd5b5061070a61139c565b6040516107179190612e6a565b60405180910390f35b34801561072c57600080fd5b506107356113aa565b6040516107429190612e6a565b60405180910390f35b34801561075757600080fd5b50610772600480360381019061076d9190612cb4565b6113b0565b60405161077f9190612d71565b60405180910390f35b34801561079457600080fd5b506107af60048036038101906107aa9190612cb4565b6114c2565b005b3480156107bd57600080fd5b506107d860048036038101906107d39190613056565b611685565b005b3480156107e657600080fd5b5061080160048036038101906107fc9190613056565b6116e8565b60405161080e9190612c63565b60405180910390f35b34801561082357600080fd5b5061083e60048036038101906108399190613213565b611708565b60405161084b9190612c63565b60405180910390f35b61086e60048036038101906108699190612fba565b61179c565b005b34801561087c57600080fd5b5061089760048036038101906108929190613056565b6118d7565b005b6000634906490660e01b7bffffffffffffffffffffffffffffffffffffffffffffffffffffffff1916827bffffffffffffffffffffffffffffffffffffffffffffffffffffffff191614806108f357506108f28261195a565b5b9050919050565b600b60003373ffffffffffffffffffffffffffffffffffffffff1673ffffffffffffffffffffffffffffffffffffffff16815260200190815260200160002060009054906101000a900460ff1615610987576040517f08c379a000000000000000000000000000000000000000000000000000000000815260040161097e9061329f565b60405180910390fd5b6101f460016109966009611a3c565b6109a091906132ee565b11156109e1576040517f08c379a00000000000000000000000000000000000000000000000000000000081526004016109d89061336e565b60405180910390fd5b600c60003373ffffffffffffffffffffffffffffffffffffffff1673ffffffffffffffffffffffffffffffffffffffff16815260200190815260200160002060009054906101000a900460ff16610a6d576040517f08c379a0000000000000000000000000000000000000000000000000000000008152600401610a6490613400565b60405180910390fd5b610a776009611a4a565b6000610a836009611a3c565b9050610a8f3382611a60565b610a9881611a7e565b6000610aa382611ab0565b604051602001610ab391906134f4565b6040516020818303038152906040529050610ace8282611b7e565b6954b40b1f852bda000000600a6000848152602001908152602001600020819055506001600b60003373ffffffffffffffffffffffffffffffffffffffff1673ffffffffffffffffffffffffffffffffffffffff16815260200190815260200160002060006101000a81548160ff0219169083151502179055503373ffffffffffffffffffffffffffffffffffffffff167fe7a962dade3191834a83c8bdc476459557964321b2aad911b42d40475e96a89283604051610b8e9190612e6a565b60405180910390a25050565b60156020528060005260406000206000915090508054610bb990613550565b80601f0160208091040260200160405190810160405280929190818152602001828054610be590613550565b8015610c325780601f10610c0757610100808354040283529160200191610c32565b820191906000526020600020905b815481529060010190602001808311610c1557829003601f168201915b505050505081565b606060008054610c4990613550565b80601f0160208091040260200160405190810160405280929190818152602001828054610c7590613550565b8015610cc25780601f10610c9757610100808354040283529160200191610cc2565b820191906000526020600020905b815481529060010190602001808311610ca557829003601f168201915b5050505050905090565b6000610cd782611c22565b6004600083815260200190815260200160002060009054906101000a900473ffffffffffffffffffffffffffffffffffffffff169050919050565b6000610d1d82611048565b90508073ffffffffffffffffffffffffffffffffffffffff168373ffffffffffffffffffffffffffffffffffffffff1603610d8d576040517f08c379a0000000000000000000000000000000000000000000000000000000008152600401610d84906135f3565b60405180910390fd5b8073ffffffffffffffffffffffffffffffffffffffff16610dac611c6d565b73ffffffffffffffffffffffffffffffffffffffff161480610ddb5750610dda81610dd5611c6d565b611708565b5b610e1a576040517f08c379a0000000000000000000000000000000000000000000000000000000008152600401610e1190613685565b60405180910390fd5b610e248383611c75565b505050565b600d5481565b6000600e82604051610e4191906136a5565b9081526020016040518091039020549050919050565b610e68610e62611c6d565b82611d2e565b610ea7576040517f08c379a0000000000000000000000000000000000000000000000000000000008152600401610e9e9061372e565b60405180910390fd5b610eb2838383611dc3565b505050565b610ebf6120bc565b610ec761120c565b73ffffffffffffffffffffffffffffffffffffffff166108fc479081150290604051600060405180830381858888f19350505050158015610f0c573d6000803e3d6000fd5b50565b610f2a8383836040518060200160405280600081525061133a565b505050565b600e818051602081018201805184825260208301602085012081835280955050505050506000915090505481565b610f656120bc565b612710610f726009611a3c565b10610fb2576040517f08c379a0000000000000000000000000000000000000000000000000000000008152600401610fa99061379a565b60405180910390fd5b610fbc6009611a4a565b6000610fc86009611a3c565b9050610fd48282611a60565b6954b40b1f852bda000000600a6000838152602001908152602001600020819055508173ffffffffffffffffffffffffffffffffffffffff167fe7a962dade3191834a83c8bdc476459557964321b2aad911b42d40475e96a8928260405161103c9190612e6a565b60405180910390a25050565b6000806110548361213a565b9050600073ffffffffffffffffffffffffffffffffffffffff168173ffffffffffffffffffffffffffffffffffffffff16036110c5576040517f08c379a00000000000000000000000000000000000000000000000000000000081526004016110bc90613806565b60405180910390fd5b80915050919050565b60008073ffffffffffffffffffffffffffffffffffffffff168273ffffffffffffffffffffffffffffffffffffffff160361113e576040517f08c379a000000000000000000000000000000000000000000000000000000000815260040161113590613898565b60405180910390fd5b600360008373ffffffffffffffffffffffffffffffffffffffff1673ffffffffffffffffffffffffffffffffffffffff168152602001908152602001600020549050919050565b61118d6120bc565b6111976000612177565b565b6000600d54905090565b6111ab6120bc565b6000600c60008373ffffffffffffffffffffffffffffffffffffffff1673ffffffffffffffffffffffffffffffffffffffff16815260200190815260200160002060006101000a81548160ff02191690831515021790555050565b6101f481565b6000600760009054906101000a900473ffffffffffffffffffffffffffffffffffffffff16905090565b60606001805461124590613550565b80601f016020809104026020016040519081016040528092919081815260200182805461127190613550565b80156112be5780601f10611293576101008083540402835291602001916112be565b820191906000526020600020905b8154815290600101906020018083116112a157829003601f168201915b5050505050905090565b600a6020528060005260406000206000915090505481565b600c6020528060005260406000206000915054906101000a900460ff1681565b600061130c6009611a3c565b6101f461131991906138b8565b905090565b60085481565b61133661132f611c6d565b838361223d565b5050565b61134b611345611c6d565b83611d2e565b61138a576040517f08c379a00000000000000000000000000000000000000000000000000000000081526004016113819061372e565b60405180910390fd5b611396848484846123a9565b50505050565b6954b40b1f852bda00000081565b61271081565b60606113bb82611c22565b60006006600084815260200190815260200160002080546113db90613550565b80601f016020809104026020016040519081016040528092919081815260200182805461140790613550565b80156114545780601f1061142957610100808354040283529160200191611454565b820191906000526020600020905b81548152906001019060200180831161143757829003601f168201915b505050505090506000611465612405565b9050600081510361147a5781925050506114bd565b6000825111156114af5780826040516020016114979291906138ec565b604051602081830303815290604052925050506114bd565b6114b88461241c565b925050505b919050565b3373ffffffffffffffffffffffffffffffffffffffff166114e282611048565b73ffffffffffffffffffffffffffffffffffffffff1614611538576040517f08c379a000000000000000000000000000000000000000000000000000000000815260040161152f9061395c565b60405180910390fd5b6000611542612484565b905080600d600082825461155691906132ee565b92505081905550600060156000848152602001908152602001600020805461157d90613550565b80601f01602080910402602001604051908101604052809291908181526020018280546115a990613550565b80156115f65780601f106115cb576101008083540402835291602001916115f6565b820191906000526020600020905b8154815290600101906020018083116115d957829003601f168201915b5050505050905081600e8260405161160e91906136a5565b9081526020016040518091039020600082825461162b91906132ee565b925050819055503373ffffffffffffffffffffffffffffffffffffffff167fedc627100c37e9197426cbe7a2fbc407832efe5ef281fdc182dd4fbcdf8d6219836040516116789190612e6a565b60405180910390a2505050565b61168d6120bc565b6001600c60008373ffffffffffffffffffffffffffffffffffffffff1673ffffffffffffffffffffffffffffffffffffffff16815260200190815260200160002060006101000a81548160ff02191690831515021790555050565b600b6020528060005260406000206000915054906101000a900460ff1681565b6000600560008473ffffffffffffffffffffffffffffffffffffffff1673ffffffffffffffffffffffffffffffffffffffff16815260200190815260200160002060008373ffffffffffffffffffffffffffffffffffffffff1673ffffffffffffffffffffffffffffffffffffffff16815260200190815260200160002060009054906101000a900460ff16905092915050565b6127106117a96009611a3c565b106117e9576040517f08c379a00000000000000000000000000000000000000000000000000000000081526004016117e0906139c8565b60405180910390fd5b60085434101561182e576040517f08c379a000000000000000000000000000000000000000000000000000000000815260040161182590613a34565b60405180910390fd5b6118386009611a4a565b60006118446009611a3c565b90506118503382611a60565b61185a8183611b7e565b61186381611a7e565b6954b40b1f852bda000000600a6000838152602001908152602001600020819055503373ffffffffffffffffffffffffffffffffffffffff167fd7d4b7e945b34b2a699c86b876268a9ed3b5ee9172b8ece5c168007e6777a8cd826040516118cb9190612e6a565b60405180910390a25050565b6118df6120bc565b600073ffffffffffffffffffffffffffffffffffffffff168173ffffffffffffffffffffffffffffffffffffffff160361194e576040517f08c379a000000000000000000000000000000000000000000000000000000000815260040161194590613ac6565b60405180910390fd5b61195781612177565b50565b60007f80ac58cd000000000000000000000000000000000000000000000000000000007bffffffffffffffffffffffffffffffffffffffffffffffffffffffff1916827bffffffffffffffffffffffffffffffffffffffffffffffffffffffff19161480611a2557507f5b5e139f000000000000000000000000000000000000000000000000000000007bffffffffffffffffffffffffffffffffffffffffffffffffffffffff1916827bffffffffffffffffffffffffffffffffffffffffffffffffffffffff1916145b80611a355750611a34826124d0565b5b9050919050565b600081600001549050919050565b6001816000016000828254019250508190555050565b611a7a82826040518060200160405280600081525061253a565b5050565b6000611a8982612595565b905080601560008481526020019081526020016000209081611aab9190613c92565b505050565b606060006001611abf84612648565b01905060008167ffffffffffffffff811115611ade57611add612e8f565b5b6040519080825280601f01601f191660200182016040528015611b105781602001600182028036833780820191505090505b509050600082602001820190505b600115611b73578080600190039150507f3031323334353637383961626364656600000000000000000000000000000000600a86061a8153600a8581611b6757611b66613d64565b5b04945060008503611b1e575b819350505050919050565b611b878261279b565b611bc6576040517f08c379a0000000000000000000000000000000000000000000000000000000008152600401611bbd90613e05565b60405180910390fd5b80600660008481526020019081526020016000209081611be69190613c92565b507ff8e1a15aba9398e019f0b49df1a4fde98ee17ae345cb5f6b5e2c27f5033e8ce782604051611c169190612e6a565b60405180910390a15050565b611c2b8161279b565b611c6a576040517f08c379a0000000000000000000000000000000000000000000000000000000008152600401611c6190613806565b60405180910390fd5b50565b600033905090565b816004600083815260200190815260200160002060006101000a81548173ffffffffffffffffffffffffffffffffffffffff021916908373ffffffffffffffffffffffffffffffffffffffff160217905550808273ffffffffffffffffffffffffffffffffffffffff16611ce883611048565b73ffffffffffffffffffffffffffffffffffffffff167f8c5be1e5ebec7d5bd14f71427d1e84f3dd0314c0f7b2291e5b200ac8c7c3b92560405160405180910390a45050565b600080611d3a83611048565b90508073ffffffffffffffffffffffffffffffffffffffff168473ffffffffffffffffffffffffffffffffffffffff161480611d7c5750611d7b8185611708565b5b80611dba57508373ffffffffffffffffffffffffffffffffffffffff16611da284610ccc565b73ffffffffffffffffffffffffffffffffffffffff16145b91505092915050565b8273ffffffffffffffffffffffffffffffffffffffff16611de382611048565b73ffffffffffffffffffffffffffffffffffffffff1614611e39576040517f08c379a0000000000000000000000000000000000000000000000000000000008152600401611e3090613e97565b60405180910390fd5b600073ffffffffffffffffffffffffffffffffffffffff168273ffffffffffffffffffffffffffffffffffffffff1603611ea8576040517f08c379a0000000000000000000000000000000000000000000000000000000008152600401611e9f90613f29565b60405180910390fd5b611eb583838360016127dc565b8273ffffffffffffffffffffffffffffffffffffffff16611ed582611048565b73ffffffffffffffffffffffffffffffffffffffff1614611f2b576040517f08c379a0000000000000000000000000000000000000000000000000000000008152600401611f2290613e97565b60405180910390fd5b6004600082815260200190815260200160002060006101000a81549073ffffffffffffffffffffffffffffffffffffffff02191690556001600360008573ffffffffffffffffffffffffffffffffffffffff1673ffffffffffffffffffffffffffffffffffffffff168152602001908152602001600020600082825403925050819055506001600360008473ffffffffffffffffffffffffffffffffffffffff1673ffffffffffffffffffffffffffffffffffffffff16815260200190815260200160002060008282540192505081905550816002600083815260200190815260200160002060006101000a81548173ffffffffffffffffffffffffffffffffffffffff021916908373ffffffffffffffffffffffffffffffffffffffff160217905550808273ffffffffffffffffffffffffffffffffffffffff168473ffffffffffffffffffffffffffffffffffffffff167fddf252ad1be2c89b69c2b068fc378daa952ba7f163c4a11628f55a4df523b3ef60405160405180910390a46120b783838360016127e2565b505050565b6120c4611c6d565b73ffffffffffffffffffffffffffffffffffffffff166120e261120c565b73ffffffffffffffffffffffffffffffffffffffff1614612138576040517f08c379a000000000000000000000000000000000000000000000000000000000815260040161212f90613f95565b60405180910390fd5b565b60006002600083815260200190815260200160002060009054906101000a900473ffffffffffffffffffffffffffffffffffffffff169050919050565b6000600760009054906101000a900473ffffffffffffffffffffffffffffffffffffffff16905081600760006101000a81548173ffffffffffffffffffffffffffffffffffffffff021916908373ffffffffffffffffffffffffffffffffffffffff1602179055508173ffffffffffffffffffffffffffffffffffffffff168173ffffffffffffffffffffffffffffffffffffffff167f8be0079c531659141344cd1fd0a4f28419497f9722a3daafe3b4186f6b6457e060405160405180910390a35050565b8173ffffffffffffffffffffffffffffffffffffffff168373ffffffffffffffffffffffffffffffffffffffff16036122ab576040517f08c379a00000000000000000000000000000000000000000000000000000000081526004016122a290614001565b60405180910390fd5b80600560008573ffffffffffffffffffffffffffffffffffffffff1673ffffffffffffffffffffffffffffffffffffffff16815260200190815260200160002060008473ffffffffffffffffffffffffffffffffffffffff1673ffffffffffffffffffffffffffffffffffffffff16815260200190815260200160002060006101000a81548160ff0219169083151502179055508173ffffffffffffffffffffffffffffffffffffffff168373ffffffffffffffffffffffffffffffffffffffff167f17307eab39ab6107e8899845ad3d59bd9653f200f220920489ca2b5937696c318360405161239c9190612c63565b60405180910390a3505050565b6123b4848484611dc3565b6123c0848484846127e8565b6123ff576040517f08c379a00000000000000000000000000000000000000000000000000000000081526004016123f690614093565b60405180910390fd5b50505050565b606060405180602001604052806000815250905090565b606061242782611c22565b6000612431612405565b90506000815111612451576040518060200160405280600081525061247c565b8061245b84611ab0565b60405160200161246c9291906138ec565b6040516020818303038152906040525b915050919050565b600060c86101f4423360405160200161249e92919061411c565b6040516020818303038152906040528051906020012060001c6124c19190614148565b6124cb91906132ee565b905090565b60007f01ffc9a7000000000000000000000000000000000000000000000000000000007bffffffffffffffffffffffffffffffffffffffffffffffffffffffff1916827bffffffffffffffffffffffffffffffffffffffffffffffffffffffff1916149050919050565b612544838361296f565b61255160008484846127e8565b612590576040517f08c379a000000000000000000000000000000000000000000000000000000000815260040161258790614093565b60405180910390fd5b505050565b6060600f6006836125a69190614148565b600681106125b7576125b6614179565b5b0180546125c390613550565b80601f01602080910402602001604051908101604052809291908181526020018280546125ef90613550565b801561263c5780601f106126115761010080835404028352916020019161263c565b820191906000526020600020905b81548152906001019060200180831161261f57829003601f168201915b50505050509050919050565b600080600090507a184f03e93ff9f4daa797ed6e38ed64bf6a1f01000000000000000083106126a6577a184f03e93ff9f4daa797ed6e38ed64bf6a1f010000000000000000838161269c5761269b613d64565b5b0492506040810190505b6d04ee2d6d415b85acef810000000083106126e3576d04ee2d6d415b85acef810000000083816126d9576126d8613d64565b5b0492506020810190505b662386f26fc10000831061271257662386f26fc10000838161270857612707613d64565b5b0492506010810190505b6305f5e100831061273b576305f5e100838161273157612730613d64565b5b0492506008810190505b612710831061276057612710838161275657612755613d64565b5b0492506004810190505b60648310612783576064838161277957612778613d64565b5b0492506002810190505b600a8310612792576001810190505b80915050919050565b60008073ffffffffffffffffffffffffffffffffffffffff166127bd8361213a565b73ffffffffffffffffffffffffffffffffffffffff1614159050919050565b50505050565b50505050565b60006128098473ffffffffffffffffffffffffffffffffffffffff16612b8c565b15612962578373ffffffffffffffffffffffffffffffffffffffff1663150b7a02612832611c6d565b8786866040518563ffffffff1660e01b815260040161285494939291906141fd565b6020604051808303816000875af192505050801561289057506040513d601f19601f8201168201806040525081019061288d919061425e565b60015b612912573d80600081146128c0576040519150601f19603f3d011682016040523d82523d6000602084013e6128c5565b606091505b50600081510361290a576040517f08c379a000000000000000000000000000000000000000000000000000000000815260040161290190614093565b60405180910390fd5b805181602001fd5b63150b7a0260e01b7bffffffffffffffffffffffffffffffffffffffffffffffffffffffff1916817bffffffffffffffffffffffffffffffffffffffffffffffffffffffff191614915050612967565b600190505b949350505050565b600073ffffffffffffffffffffffffffffffffffffffff168273ffffffffffffffffffffffffffffffffffffffff16036129de576040517f08c379a00000000000000000000000000000000000000000000000000000000081526004016129d5906142d7565b60405180910390fd5b6129e78161279b565b15612a27576040517f08c379a0000000000000000000000000000000000000000000000000000000008152600401612a1e90614343565b60405180910390fd5b612a356000838360016127dc565b612a3e8161279b565b15612a7e576040517f08c379a0000000000000000000000000000000000000000000000000000000008152600401612a7590614343565b60405180910390fd5b6001600360008473ffffffffffffffffffffffffffffffffffffffff1673ffffffffffffffffffffffffffffffffffffffff16815260200190815260200160002060008282540192505081905550816002600083815260200190815260200160002060006101000a81548173ffffffffffffffffffffffffffffffffffffffff021916908373ffffffffffffffffffffffffffffffffffffffff160217905550808273ffffffffffffffffffffffffffffffffffffffff16600073ffffffffffffffffffffffffffffffffffffffff167fddf252ad1be2c89b69c2b068fc378daa952ba7f163c4a11628f55a4df523b3ef60405160405180910390a4612b886000838360016127e2565b5050565b6000808273ffffffffffffffffffffffffffffffffffffffff163b119050919050565b6000604051905090565b600080fd5b600080fd5b60007fffffffff0000000000000000000000000000000000000000000000000000000082169050919050565b612bf881612bc3565b8114612c0357600080fd5b50565b600081359050612c1581612bef565b92915050565b600060208284031215612c3157612c30612bb9565b5b6000612c3f84828501612c06565b91505092915050565b60008115159050919050565b612c5d81612c48565b82525050565b6000602082019050612c786000830184612c54565b92915050565b6000819050919050565b612c9181612c7e565b8114612c9c57600080fd5b50565b600081359050612cae81612c88565b92915050565b600060208284031215612cca57612cc9612bb9565b5b6000612cd884828501612c9f565b91505092915050565b600081519050919050565b600082825260208201905092915050565b60005b83811015612d1b578082015181840152602081019050612d00565b60008484015250505050565b6000601f19601f8301169050919050565b6000612d4382612ce1565b612d4d8185612cec565b9350612d5d818560208601612cfd565b612d6681612d27565b840191505092915050565b60006020820190508181036000830152612d8b8184612d38565b905092915050565b600073ffffffffffffffffffffffffffffffffffffffff82169050919050565b6000612dbe82612d93565b9050919050565b612dce81612db3565b82525050565b6000602082019050612de96000830184612dc5565b92915050565b612df881612db3565b8114612e0357600080fd5b50565b600081359050612e1581612def565b92915050565b60008060408385031215612e3257612e31612bb9565b5b6000612e4085828601612e06565b9250506020612e5185828601612c9f565b9150509250929050565b612e6481612c7e565b82525050565b6000602082019050612e7f6000830184612e5b565b92915050565b600080fd5b600080fd5b7f4e487b7100000000000000000000000000000000000000000000000000000000600052604160045260246000fd5b612ec782612d27565b810181811067ffffffffffffffff82111715612ee657612ee5612e8f565b5b80604052505050565b6000612ef9612baf565b9050612f058282612ebe565b919050565b600067ffffffffffffffff821115612f2557612f24612e8f565b5b612f2e82612d27565b9050602081019050919050565b82818337600083830152505050565b6000612f5d612f5884612f0a565b612eef565b905082815260208101848484011115612f7957612f78612e8a565b5b612f84848285612f3b565b509392505050565b600082601f830112612fa157612fa0612e85565b5b8135612fb1848260208601612f4a565b91505092915050565b600060208284031215612fd057612fcf612bb9565b5b600082013567ffffffffffffffff811115612fee57612fed612bbe565b5b612ffa84828501612f8c565b91505092915050565b60008060006060848603121561301c5761301b612bb9565b5b600061302a86828701612e06565b935050602061303b86828701612e06565b925050604061304c86828701612c9f565b9150509250925092565b60006020828403121561306c5761306b612bb9565b5b600061307a84828501612e06565b91505092915050565b61308c81612c48565b811461309757600080fd5b50565b6000813590506130a981613083565b92915050565b600080604083850312156130c6576130c5612bb9565b5b60006130d485828601612e06565b92505060206130e58582860161309a565b9150509250929050565b600067ffffffffffffffff82111561310a57613109612e8f565b5b61311382612d27565b9050602081019050919050565b600061313361312e846130ef565b612eef565b90508281526020810184848401111561314f5761314e612e8a565b5b61315a848285612f3b565b509392505050565b600082601f83011261317757613176612e85565b5b8135613187848260208601613120565b91505092915050565b600080600080608085870312156131aa576131a9612bb9565b5b60006131b887828801612e06565b94505060206131c987828801612e06565b93505060406131da87828801612c9f565b925050606085013567ffffffffffffffff8111156131fb576131fa612bbe565b5b61320787828801613162565b91505092959194509250565b6000806040838503121561322a57613229612bb9565b5b600061323885828601612e06565b925050602061324985828601612e06565b9150509250929050565b7f416c726561647920636c61696d65642061206672656520636f77000000000000600082015250565b6000613289601a83612cec565b915061329482613253565b602082019050919050565b600060208201905081810360008301526132b88161327c565b9050919050565b7f4e487b7100000000000000000000000000000000000000000000000000000000600052601160045260246000fd5b60006132f982612c7e565b915061330483612c7e565b925082820190508082111561331c5761331b6132bf565b5b92915050565b7f4672656520636f77732065786861757374656400000000000000000000000000600082015250565b6000613358601383612cec565b915061336382613322565b602082019050919050565b600060208201905081810360008301526133878161334b565b9050919050565b7f4e6f742077686974656c697374656420666f72206672656520636f7720636c6160008201527f696d000000000000000000000000000000000000000000000000000000000000602082015250565b60006133ea602283612cec565b91506133f58261338e565b604082019050919050565b60006020820190508181036000830152613419816133dd565b9050919050565b600081905092915050565b7f697066733a2f2f594f55525f495046535f4349442f0000000000000000000000600082015250565b6000613461601583613420565b915061346c8261342b565b601582019050919050565b600061348282612ce1565b61348c8185613420565b935061349c818560208601612cfd565b80840191505092915050565b7f2e6a736f6e000000000000000000000000000000000000000000000000000000600082015250565b60006134de600583613420565b91506134e9826134a8565b600582019050919050565b60006134ff82613454565b915061350b8284613477565b9150613516826134d1565b915081905092915050565b7f4e487b7100000000000000000000000000000000000000000000000000000000600052602260045260246000fd5b6000600282049050600182168061356857607f821691505b60208210810361357b5761357a613521565b5b50919050565b7f4552433732313a20617070726f76616c20746f2063757272656e74206f776e6560008201527f7200000000000000000000000000000000000000000000000000000000000000602082015250565b60006135dd602183612cec565b91506135e882613581565b604082019050919050565b6000602082019050818103600083015261360c816135d0565b9050919050565b7f4552433732313a20617070726f76652063616c6c6572206973206e6f7420746f60008201527f6b656e206f776e6572206f7220617070726f76656420666f7220616c6c000000602082015250565b600061366f603d83612cec565b915061367a82613613565b604082019050919050565b6000602082019050818103600083015261369e81613662565b9050919050565b60006136b18284613477565b915081905092915050565b7f4552433732313a2063616c6c6572206973206e6f7420746f6b656e206f776e6560008201527f72206f7220617070726f76656400000000000000000000000000000000000000602082015250565b6000613718602d83612cec565b9150613723826136bc565b604082019050919050565b600060208201905081810360008301526137478161370b565b9050919050565b7f4d617820636f7773206d696e7465640000000000000000000000000000000000600082015250565b6000613784600f83612cec565b915061378f8261374e565b602082019050919050565b600060208201905081810360008301526137b381613777565b9050919050565b7f4552433732313a20696e76616c696420746f6b656e2049440000000000000000600082015250565b60006137f0601883612cec565b91506137fb826137ba565b602082019050919050565b6000602082019050818103600083015261381f816137e3565b9050919050565b7f4552433732313a2061646472657373207a65726f206973206e6f74206120766160008201527f6c6964206f776e65720000000000000000000000000000000000000000000000602082015250565b6000613882602983612cec565b915061388d82613826565b604082019050919050565b600060208201905081810360008301526138b181613875565b9050919050565b60006138c382612c7e565b91506138ce83612c7e565b92508282039050818111156138e6576138e56132bf565b5b92915050565b60006138f88285613477565b91506139048284613477565b91508190509392505050565b7f4e6f7420796f757220636f770000000000000000000000000000000000000000600082015250565b6000613946600c83612cec565b915061395182613910565b602082019050919050565b6000602082019050818103600083015261397581613939565b9050919050565b7f4d617820737570706c7920726561636865640000000000000000000000000000600082015250565b60006139b2601283612cec565b91506139bd8261397c565b602082019050919050565b600060208201905081810360008301526139e1816139a5565b9050919050565b7f496e73756666696369656e74207061796d656e74000000000000000000000000600082015250565b6000613a1e601483612cec565b9150613a29826139e8565b602082019050919050565b60006020820190508181036000830152613a4d81613a11565b9050919050565b7f4f776e61626c653a206e6577206f776e657220697320746865207a65726f206160008201527f6464726573730000000000000000000000000000000000000000000000000000602082015250565b6000613ab0602683612cec565b9150613abb82613a54565b604082019050919050565b60006020820190508181036000830152613adf81613aa3565b9050919050565b60008190508160005260206000209050919050565b60006020601f8301049050919050565b600082821b905092915050565b600060088302613b487fffffffffffffffffffffffffffffffffffffffffffffffffffffffffffffffff82613b0b565b613b528683613b0b565b95508019841693508086168417925050509392505050565b6000819050919050565b6000613b8f613b8a613b8584612c7e565b613b6a565b612c7e565b9050919050565b6000819050919050565b613ba983613b74565b613bbd613bb582613b96565b848454613b18565b825550505050565b600090565b613bd2613bc5565b613bdd818484613ba0565b505050565b5b81811015613c0157613bf6600082613bca565b600181019050613be3565b5050565b601f821115613c4657613c1781613ae6565b613c2084613afb565b81016020851015613c2f578190505b613c43613c3b85613afb565b830182613be2565b50505b505050565b600082821c905092915050565b6000613c6960001984600802613c4b565b1980831691505092915050565b6000613c828383613c58565b9150826002028217905092915050565b613c9b82612ce1565b67ffffffffffffffff811115613cb457613cb3612e8f565b5b613cbe8254613550565b613cc9828285613c05565b600060209050601f831160018114613cfc5760008415613cea578287015190505b613cf48582613c76565b865550613d5c565b601f198416613d0a86613ae6565b60005b82811015613d3257848901518255600182019150602085019450602081019050613d0d565b86831015613d4f5784890151613d4b601f891682613c58565b8355505b6001600288020188555050505b505050505050565b7f4e487b7100000000000000000000000000000000000000000000000000000000600052601260045260246000fd5b7f45524337323155524953746f726167653a2055524920736574206f66206e6f6e60008201527f6578697374656e7420746f6b656e000000000000000000000000000000000000602082015250565b6000613def602e83612cec565b9150613dfa82613d93565b604082019050919050565b60006020820190508181036000830152613e1e81613de2565b9050919050565b7f4552433732313a207472616e736665722066726f6d20696e636f72726563742060008201527f6f776e6572000000000000000000000000000000000000000000000000000000602082015250565b6000613e81602583612cec565b9150613e8c82613e25565b604082019050919050565b60006020820190508181036000830152613eb081613e74565b9050919050565b7f4552433732313a207472616e7366657220746f20746865207a65726f2061646460008201527f7265737300000000000000000000000000000000000000000000000000000000602082015250565b6000613f13602483612cec565b9150613f1e82613eb7565b604082019050919050565b60006020820190508181036000830152613f4281613f06565b9050919050565b7f4f776e61626c653a2063616c6c6572206973206e6f7420746865206f776e6572600082015250565b6000613f7f602083612cec565b9150613f8a82613f49565b602082019050919050565b60006020820190508181036000830152613fae81613f72565b9050919050565b7f4552433732313a20617070726f766520746f2063616c6c657200000000000000600082015250565b6000613feb601983612cec565b9150613ff682613fb5565b602082019050919050565b6000602082019050818103600083015261401a81613fde565b9050919050565b7f4552433732313a207472616e7366657220746f206e6f6e20455243373231526560008201527f63656976657220696d706c656d656e7465720000000000000000000000000000602082015250565b600061407d603283612cec565b915061408882614021565b604082019050919050565b600060208201905081810360008301526140ac81614070565b9050919050565b6000819050919050565b6140ce6140c982612c7e565b6140b3565b82525050565b60008160601b9050919050565b60006140ec826140d4565b9050919050565b60006140fe826140e1565b9050919050565b61411661411182612db3565b6140f3565b82525050565b600061412882856140bd565b6020820191506141388284614105565b6014820191508190509392505050565b600061415382612c7e565b915061415e83612c7e565b92508261416e5761416d613d64565b5b828206905092915050565b7f4e487b7100000000000000000000000000000000000000000000000000000000600052603260045260246000fd5b600081519050919050565b600082825260208201905092915050565b60006141cf826141a8565b6141d981856141b3565b93506141e9818560208601612cfd565b6141f281612d27565b840191505092915050565b60006080820190506142126000830187612dc5565b61421f6020830186612dc5565b61422c6040830185612e5b565b818103606083015261423e81846141c4565b905095945050505050565b60008151905061425881612bef565b92915050565b60006020828403121561427457614273612bb9565b5b600061428284828501614249565b91505092915050565b7f4552433732313a206d696e7420746f20746865207a65726f2061646472657373600082015250565b60006142c1602083612cec565b91506142cc8261428b565b602082019050919050565b600060208201905081810360008301526142f0816142b4565b9050919050565b7f4552433732313a20746f6b656e20616c7265616479206d696e74656400000000600082015250565b600061432d601c83612cec565b9150614338826142f7565b602082019050919050565b6000602082019050818103600083015261435c81614320565b905091905056fea2646970667358221220f65aa6ce48fec72fec68506a8805cd67cf12f539536bed308688a206ba11793864736f6c63430008140033",
  "linkReferences": {},
  "deployedLinkReferences": {}
}